:100000000C942A000C9447000C9449000C9447006F
:100010000C9447000C9447000C9447000C94470044
:100020000C9447000C9447000C9447000C94470034
:100030000C9447000C9447000C9447000C94470024
:100040000C9447000C9447000C9447000C94470014
:100050000C94470011241FBECFE5D8E0DEBFCDBF12
:1000600010E0A0E6B0E0E6EDF1E002C005900D92F0
:10007000A436B107D9F710E0A4E6B0E001C01D92A4
:10008000A636B107E1F70E948E000C94E9000C94AB
:1000900000001F920F920FB60F9211242F933F93DF
:1000A0004F935F938F939F9320ED37E040E951E0AA
:1000B000CA010197F1F721503040D1F780916400D7
:1000C0009091650021E030E08227932790936500AE
:1000D000809364009F918F915F914F913F912F91F9
:1000E0000F900FBE0F901F901895382F2227A9014F
:1000F000481B590BCA0164E670E00E94C200862FBB
:10010000972F0895E3E5F0E0808188648083808103
:100110008062808380818560808308950F931F9320
:10012000CF93DF93E7E3F0E0808188608083E1E3B1
:10013000F0E08081877F80830E948200EBE5F0E021
:10014000808180688083E5E5F0E080818C60808339
:10015000789481E090E0909365008093640000E6DD
:1001600010E0CCE5D0E08091640090916500880FAC
:10017000991FF801E80FF91F808191810E94750095
:100180008883F1CF97FB092E07260AD077FD04D08C
:100190000CD006D000201AF4709561957F4F089519
:1001A000F6F7909581959F4F0895AA1BBB1B51E1CF
:1001B00007C0AA1FBB1FA617B70710F0A61BB70BD7
:1001C000881F991F5A95A9F780959095BC01CD017C
:0601D0000895F894FFCF32
:0401D60014003200DF
:00000001FF
