:100000000C942A000C9434000C9434000C943400AA
:100010000C9434000C9434000C9434000C94340090
:100020000C9434000C9434000C9434000C94340080
:100030000C9434000C9434000C9434000C94340070
:100040000C9434000C9434000C9434000C94340060
:100050000C94340011241FBECFE5D8E0DEBFCDBF25
:100060000E9436000C9461000C940000EAE3F0E07A
:10007000808181608083E3E5F0E08081856080831A
:1000800020E030E040E050E0E8E5F0E0ABE3B0E055
:1000900091E060E070E0808180FFFDCF8081816031
:1000A00080832F5F3F4F2D33310519F44F5F5F4F32
:1000B0009B014530510579F78C9189278C93AB01D1
:0600C000EACFF894FFCF27
:00000001FF
