:100000000C942A000C943C000C9469000C943C0065
:100010000C943C000C943C000C943C000C943C0070
:100020000C943C000C943C000C943C000C943C0060
:100030000C943C000C943C000C943C000C943C0050
:100040000C943C000C943C000C943C000C943C0040
:100050000C943C0011241FBECFE5D8E0DEBFCDBF1D
:1000600010E0A0E6B0E001C01D92A236B107E1F7B2
:100070000E943E000C9495000C940000E7E3F0E031
:10008000808188608083E1E3F0E08081877F8083E6
:10009000EBE5F0E0808180688083E5E5F0E0808139
:1000A0008C608083789481E090E0909361008093ED
:1000B0006000E8E3F0E08091600090916100892B9E
:1000C00021F0808188608083F6CF8081877F808364
:1000D000F2CF1F920F920FB60F9211242F933F93DE
:1000E0004F935F938F939F9328EB3BE040E951E060
:1000F000CA010197F1F721503040D1F7809160009B
:100100009091610021E030E0822793279093610075
:10011000809360009F918F915F914F913F912F91BC
:0E0120000F900FBE0F901F901895F894FFCF10
:00000001FF
