S01D00004C6162315F5461736B335F50757368546F67676C652E7372656341
S11300000C942A000C9434000C9434000C943400A6
S11300100C9434000C9434000C9434000C9434008C
S11300200C9434000C9434000C9434000C9434007C
S11300300C9434000C9434000C9434000C9434006C
S11300400C9434000C9434000C9434000C9434005C
S11300500C94340011241FBECFE5D8E0DEBFCDBF21
S11300600E9436000C9453000C9400001F93EAE3A2
S1130070F0E0808181608083E9E3F0E068EB7BE07D
S113008040E951E0ABE3B0E011E0808181FFFDCFB6
S11300909B01CA010197F1F721503040D1F78C91AF
S10D00A081278C93F2CFF894FFCF70
S9030000FC
