:100000000C942A000C9434000C9434000C943400AA
:100010000C9434000C9434000C9434000C94340090
:100020000C9434000C9434000C9434000C94340080
:100030000C9434000C9434000C9434000C94340070
:100040000C9434000C9434000C9434000C94340060
:100050000C94340011241FBECFE5D8E0DEBFCDBF25
:100060000E9436000C944A000C940000EAE3F0E091
:10007000808181608083A9E3B0E0EBE3F0E08C91C4
:1000800081FF04C0808181608083F9CF80818E7F71
:080090008083F5CFF894FFCF47
:00000001FF
