S01200004C6162315F5461736B342E73726563AC
S11300000C942A000C9434000C9434000C943400A6
S11300100C9434000C9434000C9434000C9434008C
S11300200C9434000C9434000C9434000C9434007C
S11300300C9434000C9434000C9434000C9434006C
S11300400C9434000C9434000C9434000C9434005C
S11300500C94340011241FBECFE5D8E0DEBFCDBF21
S11300600E9443000C9482000C940000382F222735
S1130070A901481B590BCA0164E670E00E945B00A9
S1130080862F972F0895E7E3F0E0808188608083CE
S1130090E3E5F0E0808188648083808180628083EE
S11300A08081856080838EE190E00E943600ECE5DB
S11300B0F0E08083FECF97FB092E07260AD077FD58
S11300C004D00CD006D000201AF4709561957F4FAF
S11300D00895F6F7909581959F4F0895AA1BBB1B31
S11300E051E107C0AA1FBB1FA617B70710F0A61B34
S11300F0B70B881F991F5A95A9F780959095BC0155
S10B0100CD010895F894FFCF2E
S9030000FC
