S01200004C6162315F5461736B342E73726563AC
S11300000C942A000C943F000C943F000C943F0085
S11300100C943F000C943F000C943F000C943F0060
S11300200C943F000C943F000C943F000C943F0050
S11300300C943F000C943F000C943F000C943F0040
S11300400C943F000C943F000C943F000C943F0030
S11300500C943F0011241FBECFE5D8E0DEBFCDBF16
S113006010E0A0E6B0E0E0E9F1E002C005900D92F6
S1130070AE36B107D9F70E944E000C94C6000C941A
S11300800000382F2227A901481B590BCA0164E636
S113009070E00E949F00862F972F0895AF92BF9221
S11300A0CF92DF92EF92FF920F931F93DF93CF9340
S11300B0CDB7DEB72E970FB6F894DEBF0FBECDBF17
S11300C0E7E3F0E0808188608083E3E5F0E080810D
S11300D0886480838081806280838081856080835E
S11300E0DE011196E0E6F0E08EE001900D92815081
S11300F0E1F7EE24FF245E010894A11CB11CCC247A
S1130100DD240CE510E00FC0F80180832F5F3F4F22
S1130110283C3105C9F70894E11CF11CF7E0EF16FF
S1130120F1040CF07601C701880F991FF501E80F5F
S1130130F91F808191810E9441009601E5CF97FBD0
S1130140092E07260AD077FD04D00CD006D0002053
S11301501AF4709561957F4F0895F6F790958195FF
S11301609F4F0895AA1BBB1B51E107C0AA1FBB1FC9
S1130170A617B70710F0A61BB70B881F991F5A952F
S1130180A9F780959095BC01CD010895F894FFCF0F
S11101900A0014001E00280032004B00640018
S9030000FC
