S01200004C6162315F5461736B312E73726563AF
S11300000C942A000C9434000C9434000C943400A6
S11300100C9434000C9434000C9434000C9434008C
S11300200C9434000C9434000C9434000C9434007C
S11300300C9434000C9434000C9434000C9434006C
S11300400C9434000C9434000C9434000C9434005C
S11300500C94340011241FBECFE5D8E0DEBFCDBF21
S11300600E9436000C9456000C940000EAE3F0E081
S1130070808183608083EBE3F0E060ED77E04CE225
S113008051E08081836080839B01CA010197F1F76D
S113009021503040D1F780818C7F80839B01CA013D
S11300A00197F1F721503040D1F7EBCFF894FFCF0F
S9030000FC
