S01200004C6162325F5461736B312E73726563AE
S11300000C942A000C943C000C943C000C943C008E
S11300100C943C000C943C000C943C000C943C006C
S11300200C943C000C943C000C943C000C943C005C
S11300300C943C000C943C000C943C000C943C004C
S11300400C943C000C943C000C943C000C943C003C
S11300500C943C0011241FBECFE5D8E0DEBFCDBF19
S113006010E0A0E6B0E001C01D92A036B107E1F7B0
S11300700E946F000C9481000C940000E3E5F0E012
S113008080818864808380818062808380818560B0
S113009080830895E7E2F0E080818F73808380811C
S11300A080628083E6E2F0E08081806880838081E2
S11300B0876080830895E7E2F0E09081892B808354
S11300C0E6E2F0E0808180648083808184FFFDCF5C
S11300D0E6E2F0E080818061808385B10895CF936A
S11300E0DF93E7E3F0E08081886080830E943E0034
S11300F00E944A00CCE5D0E085E00E945B00888342
S1090100FBCFF894FFCFD1
S9030000FC
