:100000000C942A000C943C000C943C000C943C0092
:100010000C943C000C943C000C943C000C943C0070
:100020000C943C000C943C000C943C000C943C0060
:100030000C943C000C943C000C943C000C943C0050
:100040000C943C000C943C000C943C000C943C0040
:100050000C943C0011241FBECFE5D8E0DEBFCDBF1D
:1000600010E0A0E6B0E001C01D92A236B107E1F7B2
:100070000E944F000C9468000C94000080E487BB41
:10008000EDE2F0E083E080838081806480830895E6
:10009000EEE2F0E080818823ECF78FB10895CF93F2
:1000A000DF93EAE3F0E08081816080830E943E007C
:1000B000109260008FE38FB9CBE3D0E00E9448003C
:1000C000809360008A38D1F7888181608883F6CF79
:0400D000F894FFCFD2
:00000001FF
