:100000000C942A000C943C000C943C000C943C0092
:100010000C943C000C943C000C943C000C943C0070
:100020000C943C000C943C000C943C000C943C0060
:100030000C943C000C943C000C943C000C943C0050
:100040000C943C000C943C000C943C000C943C0040
:100050000C943C0011241FBECFE5D8E0DEBFCDBF1D
:1000600010E0A0E6B0E001C01D92A336B107E1F7B1
:100070000E9474000C94AC000C940000E7E2F0E0E5
:1000800080818F738083808180628083E6E2F0E0EC
:100090008081806880838081876080830895E7E223
:1000A000F0E09081892B8083E6E2F0E0808180643B
:1000B0008083808184FFFDCFE6E2F0E08081806173
:1000C000808385B1089580E487BBEDE2F0E083E0B2
:1000D00080838081806480830895EEE2F0E08081F7
:1000E0008823ECF78FB10895EF92FF920F931F933F
:1000F000CF93DF93EAE3F0E08081876080830E9402
:100100003E000E946300109260001FB810926100D0
:10011000CBE3D0E011E000E00F2EFFE2EF2EFF2452
:10012000F02D0E946D0080936100893159F488811F
:1001300081278883902F80916000882309F4912F74
:100140009093600080916000882359F385E00E94BD
:0C0150004F00F7018083E5CFF894FFCF4B
:00000001FF
