:100000000C942A000C9434000C9434000C943400AA
:100010000C9434000C9434000C9434000C94340090
:100020000C9434000C9434000C9434000C94340080
:100030000C9434000C9434000C9434000C94340070
:100040000C9434000C9434000C9434000C94340060
:100050000C94340011241FBECFE5D8E0DEBFCDBF25
:100060000E9436000C944D000C940000E7E3F0E091
:1000700080818FEF8083E8E3F0E045E328E631E01C
:10008000808181608083842F8A95F1F780818E7FC3
:0E0090008083C9010197F1F7F3CFF894FFCFF9
:00000001FF
