:100000000C942A000C943F000C943F000C943F0089
:100010000C943F000C943F000C943F000C943F0064
:100020000C943F000C943F000C943F000C943F0054
:100030000C943F000C943F000C943F000C943F0044
:100040000C943F000C943F000C943F000C943F0034
:100050000C943F0011241FBECFE5D8E0DEBFCDBF1A
:1000600010E0A0E6B0E0E6E8F5E002C005900D92F1
:10007000AE36B107D9F70E94FB000C94C1020C9474
:100080000000AF92BF92CF92DF92EF92FF920F9358
:100090001F93CF93DF93282F392FC901880F991F02
:1000A000220F331F220F331F220F331F820F931F84
:1000B00064E670E00E949A02862F972FEC01EBE332
:1000C000F0E0808181608083BE01882777FD809584
:1000D000982F0E9483015B016C0120E030E84BE324
:1000E00055E40E940F027B018C0120E030E040E8E3
:1000F0005FE30E94510188231CF461E070E023C09B
:10010000C801B70120E03FEF4FE757E40E940B0220
:100110001816ACF4C601B50120E030E040E251E42D
:100120000E940F020E945501CB01672B79F02CE24F
:1001300031E0F9013197F1F70197D9F707C0C8010C
:10014000B7010E945501CB010197F1F7EBE3F0E015
:1001500080818E7F80836AE070E06C1B7D0B882736
:1001600077FD8095982F0E9483015B016C0120E050
:1001700030E84BE355E40E940F027B018C0120E044
:1001800030E040E85FE30E94510188231CF461E005
:1001900070E023C0C801B70120E03FEF4FE757E40C
:1001A0000E940B021816ACF4C601B50120E030E045
:1001B00040E251E40E940F020E945501CB01672BDF
:1001C00079F02CE231E0F9013197F1F70197D9F795
:1001D00007C0C801B7010E945501CB010197F1F793
:1001E000DF91CF911F910F91FF90EF90DF90CF9013
:1001F000BF90AF9008953F924F925F926F927F921F
:100200008F929F92AF92BF92CF92DF92EF92FF9226
:100210000F931F93DF93CF93CDB7DEB72E970FB613
:10022000F894DEBF0FBECDBFEAE3F0E080818160CD
:1002300080833E010894611C711C0F2EF0E64F2E46
:10024000F0E05F2EF02D0F2EFEE03F2EF02D0F2E52
:10025000FFE08F2E9924F02D8C0E9D1E80E090E003
:10026000A82EB92ED301F201832D01900D92815059
:10027000E1F763010FC0C7010E9441000F5F1F4FEC
:1002800002331105C1F782E090E0C80ED91EC814F0
:10029000D90441F3F601E080F1808A2D9B2D8C0179
:1002A000EACF6CD008F481E0089594D088F09F578D
:1002B00090F0B92F9927B751A0F0D1F0660F771FB2
:1002C000881F991F1AF0BA95C9F712C0B13081F092
:1002D0009BD0B1E0089598C0672F782F8827B85F2A
:1002E00039F0B93FCCF3869577956795B395D9F7F3
:1002F0003EF490958095709561957F4F8F4F9F4FFD
:100300000895E89409C097FB3EF490958095709508
:1003100061957F4F8F4F9F4F9923A9F0F92F96E951
:10032000BB279395F695879577956795B795F111C6
:10033000F8CFFAF4BB0F11F460FF1BC06F5F7F4F63
:100340008F4F9F4F16C0882311F096E911C0772375
:1003500021F09EE8872F762F05C0662371F096E87E
:10036000862F70E060E02AF09A95660F771F881F4D
:10037000DAF7880F9695879597F90895990F0008F1
:10038000550FAA0BE0E8FEEF16161706E807F90767
:10039000C0F012161306E407F50798F0621B730B02
:1003A000840B950B39F40A2661F0232B242B252B83
:1003B00021F408950A2609F4A140A6958FEF811D26
:1003C000811D089557FD9058440F551F59F05F3F08
:1003D00071F04795880F97FB991F61F09F3F79F067
:1003E00087950895121613061406551FF2CF4695E9
:1003F000F1DF08C0161617061806991FF1CF86956B
:100400007105610508940895E894BB27662777274E
:10041000CB0197F90895B2DF08F48FEF08950BD060
:1004200078C069D028F06ED018F0952309F05AC032
:100430005FC01124EACFC6DFA0F3959FD1F3950FDB
:1004400050E0551F629FF001729FBB27F00DB11D58
:10045000639FAA27F00DB11DAA1F649F6627B00DE8
:10046000A11D661F829F2227B00DA11D621F739FD1
:10047000B00DA11D621F839FA00D611D221F749FDF
:100480003327A00D611D231F849F600D211D822F26
:10049000762F6A2F11249F5750408AF0E1F088236D
:1004A0004AF0EE0FFF1FBB1F661F771F881F91507A
:1004B0005040A9F79E3F510570F014C0A6CF5F3F92
:1004C000ECF3983EDCF3869577956795B795F795AD
:1004D000E7959F5FC1F7FE2B880F911D9695879535
:1004E00097F9089597F99F6780E870E060E00895B4
:1004F0009FEF80EC089500240A941616170618063C
:100500000906089500240A94121613061406050617
:100510000895092E0394000C11F4882352F0BB0FA8
:1005200040F4BF2B11F460FF04C06F5F7F4F8F4F0B
:100530009F4F089597FB092E07260AD077FD04D018
:100540000CD006D000201AF4709561957F4F089565
:10055000F6F7909581959F4F0895AA1BBB1B51E11B
:1005600007C0AA1FBB1FA617B70710F0A61BB70B23
:10057000881F991F5A95A9F780959095BC01CD01C8
:060580000895F894FFCF7E
:0E0586000A0014001E00280032004B00640022
:00000001FF
